:020000040800F2
:1000000000800120218B0008D9860008DB860008CB
:10001000DD860008DF860008E18600080000000099
:10002000000000000000000000000000914C0008EB
:10003000E386000800000000214D0008854D0008FF
:10004000718B0008718B0008718B0008718B0008A0
:10005000718B0008718B0008E5860008718B000821
:10006000718B0008718B0008718B0008718B000880
:10007000718B0008718B0008718B0008718B000870
:10008000718B0008718B0008718B0008718B000860
:10009000718B0008718B0008718B0008718B000850
:1000A000718B0008718B0008718B0008718B000840
:1000B000718B0008F1860008718B0008718B0008B5
:1000C000718B0008718B0008718B0008718B000820
:1000D000718B0008718B0008718B0008FD86000889
:1000E00009870008718B0008718B0008718B00086C
:1000F000718B0008718B0008718B0008718B0008F0
:10010000718B0008718B0008718B0008718B0008DF
:10011000718B0008718B0008718B0008718B0008CF
:10012000718B0008718B0008718B0008718B0008BF
:10013000718B0008718B0008718B0008718B0008AF
:10014000718B0008718B0008718B0008718B00089F
:10015000718B0008718B0008718B0008718B00088F
:10016000718B0008718B0008718B0008718B00087F
:10017000718B0008718B0008718B00080000000073
:08018000718B0008718B00086F
:1001900010B5054C237833B9044B13B10448AFF3C1
:1001A00000800123237010BD940600200000000091
:1001B00068EA000808B5034B1BB103490348AFF3D5
:1001C000008008BD000000009806002068EA0008D2
:1001D00010F8012B11F8013B012A28BF9A42F7D0F1
:1001E000D01A7047034613F8012B002AFBD1181AC6
:1001F000013870470000000000000000000000000F
:1002000001F0FF01102A2BDB10F0070F08D010F8C7
:10021000013B013A8B422DD010F0070F42B3F6D1CB
:10022000F0B441EA012141EA014122F007047FF0E4
:1002300000070023F0E80256083C85EA010586EA3B
:10024000010685FA47F5A3FA87F586FA47F6A5FA77
:1002500087F68EB9EED1F0BC01F0FF0102F0070283
:1002600032B110F8013B013A83EA010313B1F8D12E
:100270000020704701387047002D06BF354603380F
:10028000073815F0010F07D1013015F4807F02BF48
:10029000013015F4C03F0130F0BC0138704700BF99
:1002A00081F0004102E000BF83F0004330B54FEA27
:1002B00041044FEA430594EA050F08BF90EA020F94
:1002C0001FBF54EA000C55EA020C7FEA645C7FEA27
:1002D000655C00F0E2804FEA5454D4EB5555B8BF4A
:1002E0006D420CDD2C4480EA020281EA030382EABB
:1002F000000083EA010180EA020281EA0303362D4D
:1003000088BF30BD11F0004F4FEA01314FF4801C1F
:100310004CEA113102D0404261EB410113F0004F31
:100320004FEA03334CEA133302D0524263EB4303E8
:1003300094EA050F00F0A780A4F10104D5F1200E86
:100340000DDB02FA0EFC22FA05F2801841F10001E1
:1003500003FA0EF2801843FA05F359410EE0A5F1B5
:1003600020050EF1200E012A03FA0EFC28BF4CF0E6
:10037000020C43FA05F3C01851EBE37101F000459C
:1003800007D54FF0000EDCF1000C7EEB00006EEBA9
:100390000101B1F5801F1BD3B1F5001F0CD3490833
:1003A0005FEA30004FEA3C0C04F101044FEA44528A
:1003B00012F5800F80F09A80BCF1004F08BF5FEA11
:1003C000500C50F1000041EB045141EA050130BDF1
:1003D0005FEA4C0C404141EB010111F4801FA4F194
:1003E0000104E9D191F0000F04BF01460020B1FAE9
:1003F00081F308BF2033A3F10B03B3F120020CDA21
:100400000C3208DD02F1140CC2F10C0201FA0CF0FE
:1004100021FA02F10CE002F11402D8BFC2F1200C63
:1004200001FA02F120FA0CFCDCBF41EA0C01904019
:10043000E41AA2BF01EB0451294330BD6FEA040462
:100440001F3C1CDA0C340EDC04F11404C4F120024D
:1004500020FA04F001FA02F340EA030021FA04F35F
:1004600045EA030130BDC4F10C04C4F1200220FAB6
:1004700002F001FA04F340EA0300294630BD21FAF4
:1004800004F0294630BD94F0000F83F4801306BFBA
:1004900081F480110134013D4EE77FEA645C18BFAE
:1004A0007FEA655C29D094EA050F08BF90EA020F45
:1004B00005D054EA000C04BF1946104630BD91EA3D
:1004C000030F1EBF0021002030BD5FEA545C05D140
:1004D0004000494128BF41F0004130BD14F580047F
:1004E0003CBF01F5801130BD01F0004545F0FE41F3
:1004F00041F470014FF0000030BD7FEA645C1ABF28
:10050000194610467FEA655C1CBF0B46024650EA5E
:10051000013406BF52EA033591EA030F41F400218A
:1005200030BD00BF90F0000F04BF0021704730B510
:100530004FF4806404F132044FF000054FF00001E5
:1005400050E700BF90F0000F04BF0021704730B5A6
:100550004FF4806404F1320410F0004548BF40427B
:100560004FF000013EE700BF42004FEAE2014FEAD0
:1005700031014FEA02701FBF12F07F4393F07F4FAB
:1005800081F06051704792F0000F14BF93F07F4FDD
:10059000704730B54FF4607401F0004521F0004120
:1005A00020E700BF50EA010208BF704730B54FF0A6
:1005B00000050AE050EA010208BF704730B511F0AB
:1005C000004502D5404261EB41014FF4806404F1E3
:1005D00032045FEA915C3FF4DCAE4FF003025FEA65
:1005E000DC0C18BF03325FEADC0C18BF033202EBED
:1005F000DC02C2F1200300FA03FC20FA02F001FA47
:1006000003FE40EA0E0021FA02F11444C1E600BFE5
:1006100070B54FF0FF0C4CF4E06C1CEA11541DBF98
:100620001CEA135594EA0C0F95EA0C0F00F0DEF863
:100630002C4481EA030621EA4C5123EA4C5350EA48
:10064000013518BF52EA033541F4801143F4801399
:1006500038D0A0FB02CE4FF00005E1FB02E506F02A
:100660000042E0FB03E54FF00006E1FB03569CF07F
:10067000000F18BF4EF0010EA4F1FF04B6F5007F85
:1006800064F5407404D25FEA4E0E6D4146EB0606F7
:1006900042EAC62141EA55514FEAC52040EA5E5080
:1006A0004FEACE2EB4F1FD0C88BFBCF5E06F1ED82A
:1006B000BEF1004F08BF5FEA500E50F1000041EB61
:1006C000045170BD06F0004646EA010140EA02000E
:1006D00081EA0301B4EB5C04C2BFD4EB0C0541EA30
:1006E000045170BD41F480114FF0000E013C00F345
:1006F000AB8014F1360FDEBF002001F0004170BD69
:10070000C4F10004203C35DA0C341BDC04F1140481
:10071000C4F1200500FA05F320FA04F001FA05F20D
:1007200040EA020001F0004221F0004110EBD370DA
:1007300021FA04F642EB06015EEA430E08BF20EA06
:10074000D37070BDC4F10C04C4F1200500FA04F3A9
:1007500020FA05F001FA04F240EA020001F000413B
:1007600010EBD37041F100015EEA430E08BF20EAAE
:10077000D37070BDC4F1200500FA05F24EEA020EF6
:1007800020FA04F301FA05F243EA020321FA04F025
:1007900001F0004121FA04F220EA020000EBD370DC
:1007A0005EEA430E08BF20EAD37070BD94F0000FDC
:1007B0000FD101F00046400041EB010111F4801F10
:1007C00008BF013CF7D041EA060195F0000F18BFC1
:1007D000704703F00046520043EB030313F4801FFD
:1007E00008BF013DF7D043EA0603704794EA0C0FB7
:1007F0000CEA135518BF95EA0C0F0CD050EA4106CD
:1008000018BF52EA4306D1D181EA030101F0004149
:100810004FF0000070BD50EA410606BF1046194671
:1008200052EA430619D094EA0C0F02D150EA01367D
:1008300013D195EA0C0F05D152EA03361CBF1046BE
:1008400019460AD181EA030101F0004141F0FE415D
:1008500041F470014FF0000070BD41F0FE4141F4E1
:10086000780170BD70B54FF0FF0C4CF4E06C1CEAE1
:1008700011541DBF1CEA135594EA0C0F95EA0C0F96
:1008800000F0A7F8A4EB050481EA030E52EA033551
:100890004FEA013100F088804FEA03334FF0805572
:1008A00045EA131343EA12634FEA022245EA11159F
:1008B00045EA10654FEA00260EF000419D4208BF50
:1008C000964244F1FD0404F5407402D25B084FEAFD
:1008D0003202B61A65EB03055B084FEA32024FF4A9
:1008E00080104FF4002CB6EB020E75EB030E22BF06
:1008F000B61A754640EA0C005B084FEA3202B6EBC6
:10090000020E75EB030E22BFB61A754640EA5C0074
:100910005B084FEA3202B6EB020E75EB030E22BF04
:10092000B61A754640EA9C005B084FEA3202B6EB05
:10093000020E75EB030E22BFB61A754640EADC00C4
:1009400055EA060E18D04FEA051545EA16754FEA26
:1009500006164FEAC30343EA52734FEAC2025FEA44
:100960001C1CC0D111F4801F0BD141EA00014FF0D3
:1009700000004FF0004CB6E711F4801F04BF0143A4
:100980000020B4F1FD0C88BFBCF5E06F3FF6AFAEC0
:10099000B5EB030C04BFB6EB020C5FEA500C50F150
:1009A000000041EB045170BD0EF0004E4EEA1131D3
:1009B00014EB5C04C2BFD4EB0C0541EA045170BDDA
:1009C00041F480114FF0000E013C90E645EA060E1E
:1009D0008DE60CEA135594EA0C0F08BF95EA0C0F4C
:1009E0003FF43BAF94EA0C0F0AD150EA01347FF494
:1009F00034AF95EA0C0F7FF425AF104619462CE76B
:100A000095EA0C0F06D152EA03353FF4FDAE1046CD
:100A1000194622E750EA410618BF52EA43067FF41E
:100A2000C5AE50EA41047FF40DAF52EA43057FF4AE
:100A3000EBAE12E74FF0FF3C06E000BF4FF0010CB9
:100A400002E000BF4FF0010C4DF804CD4FEA410C1D
:100A50007FEA6C5C4FEA430C18BF7FEA6C5C1BD0EA
:100A600001B050EA410C0CBF52EA430C91EA030F6B
:100A700002BF90EA020F0020704710F1000F91EAC8
:100A8000030F58BF994208BF90422CBFD8176FEA96
:100A9000E37040F0010070474FEA410C7FEA6C5C64
:100AA00002D150EA013C07D14FEA430C7FEA6C5C6B
:100AB000D6D152EA033CD3D05DF8040B704700BF97
:100AC0008446104662468C461946634600E000BFE5
:100AD00001B5FFF7B7FF002848BF10F1000F01BDB7
:100AE0004DF808EDFFF7F4FF0CBF012000205DF882
:100AF00008FB00BF4DF808EDFFF7EAFF34BF012007
:100B000000205DF808FB00BF4DF808EDFFF7E0FF9F
:100B100094BF012000205DF808FB00BF4DF808EDF0
:100B2000FFF7CEFF94BF012000205DF808FB00BF57
:100B30004DF808EDFFF7C4FF34BF012000205DF839
:100B400008FB00BF4FEA410C7FEA6C5C02D150EA1F
:100B5000013C0AD14FEA430C7FEA6C5C02D152EAB5
:100B6000033C02D14FF0000070474FF00100704786
:100B70004FEA410212F5001215D211D56FF47873C5
:100B8000B3EB625212D94FEAC12343F0004343EA68
:100B9000505311F0004F23FA02F018BF4042704743
:100BA0004FF00000704750EA013005D111F00040CD
:100BB00008BF6FF0004070474FF00000704700BF63
:100BC0004A0011D212F5001211D20DD56FF47873CC
:100BD000B3EB62520ED44FEAC12343F0004343EA21
:100BE000505323FA02F070474FF00000704750EA6C
:100BF000013002D14FF0FF3070474FF000007047D6
:100C000053B94AB9002908BF00281CBF4FF0FF3173
:100C10004FF0FF3001F0F6B8ADF1080C6DE904CEED
:100C200000F006F8DDF804E0DDE9022304B07047C7
:100C30002DE9F0478C460D460446089E002B51D105
:100C40008A4217466DD9B2FA82FEBEF1000F0BD070
:100C5000CEF1200C01FA0EF520FA0CFC02FA0EF788
:100C60004CEA050C00FA0EF44FEA174A250CBCFBBF
:100C7000FAF81FFA87F90AFB18CC45EA0C4508FB7D
:100C800009F3AB420AD9ED1908F1FF3280F0238154
:100C9000AB4240F22081A8F102083D44ED1AA4B213
:100CA000B5FBFAF00AFB105544EA054400FB09F9CC
:100CB000A14509D9E41900F1FF3380F00A81A1456B
:100CC00040F2078102383C44A4EB090440EA0840A2
:100CD0000021002E61D024FA0EF4002334607360EA
:100CE000BDE8F0878B4207D9002E54D0002186E85A
:100CF00021000846BDE8F087B3FA83F1002940F0EF
:100D00008E80AB4202D3824200F2FA80841A65EBF5
:100D100003050120AC46002E3FD086E81010BDE848
:100D2000F08712B90127B7FBF2F7B7FA87FEBEF1D9
:100D3000000F34D1EB1B3A0C1FFA87FC0121B3FBE7
:100D4000F2F8250C02FB183345EA03450CFB08F3C7
:100D5000AB4207D9ED1908F1FF3002D2AB4200F2E5
:100D6000D1808046ED1AA3B2B5FBF2F002FB10551C
:100D700043EA05440CFB00FCA44507D9E41900F143
:100D8000FF3302D2A44500F2B8801846A4EB0C044D
:100D900040EA08409DE731463046BDE8F087CEF195
:100DA000200405FA0EF307FA0EF720FA04F83A0CBD
:100DB00025FA04F448EA0308B4FBF2F14FEA1845B7
:100DC00002FB11441FFA87FC45EA044501FB0CF3C2
:100DD000AB4200FA0EF409D9ED1901F1FF3080F0B1
:100DE0008A80AB4240F2878002393D44EB1A1FFAF9
:100DF00088F5B3FBF2F002FB103345EA034500FB34
:100E00000CF3AB4207D9ED1900F1FF386FD2AB42BA
:100E10006DD902383D44EB1A40EA01418FE7C1F138
:100E2000200722FA07F88B4005FA01F448EA030389
:100E300020FA07FE4FEA134CFD404EEA040EB5FBC4
:100E4000FCF94FEA1E440CFB19551FFA83F844EADB
:100E5000054509FB08F4AC4202FA01F200FA01FA76
:100E600008D9ED1809F1FF3043D2AC4241D9A9F1BC
:100E700002091D442D1B1FFA8EFEB5FBFCF00CFB76
:100E800010554EEA054400FB08F8A04507D9E418C0
:100E900000F1FF3529D2A04527D902381C4440EA89
:100EA0000940A4EB0804A0FB02894C45C6464D4608
:100EB00015D312D056B1BAEB0E0364EB050404FA55
:100EC00007F7CB401F43CC40376074600021BDE87A
:100ED000F0871846F8E69046E0E6C245EAD2B8EB5D
:100EE000020E69EB03050138E4E72846D7E74046E0
:100EF00091E78146BEE7014678E702383C4445E782
:100F0000084608E7A8F102083D442BE703685A00A9
:100F10004CBF43F0004323F000431844704700BF28
:100F200061B32DE9F84F01F1FF3A90460646D146EC
:100F3000002707EB090404EBD4746410E500711971
:100F40000846FFF7E3FFA245834605F10800304459
:100F500009D0FFF7DBFFC34500F1FF3005D840455E
:100F600009D2671CE5E7C34505D9A74202D004F1C1
:100F7000FF39DEE700210846BDE8F88F08467047D4
:100F8000012807D0022807D0044B00280CBF1846C0
:100F900000207047024870470248704785160008D5
:100FA000891600088D16000830B5244B83B004461E
:100FB0008D1E7BB301A92846AFF3008020B30199B1
:100FC0002A46FFF7ADFF0146F0B1FFF79FFF4B68E0
:100FD000A064012B12D0002B01F1040020DBFFF7ED
:100FE00095FF0023E06423650368002B1CDBFFF7FB
:100FF0008DFF00232061184603B030BD002323611C
:101000000523184603B030BD002323610923184689
:1010100003B030BD0A490B48091AC9100191CFE746
:101020000123E0642365DFE7C3F30360FFF7A8FF54
:101030000028206114BF00230923DCE70000000022
:1010400074F900083CF800080368DA0710B5044694
:1010500006D49B0700F1480009D500F051FC236835
:10106000590709D51A070ED5DB0613D510BD00F0B8
:101070003FFC23685907F5D404F1D00000F048FC88
:1010800023681A07F0D404F5A87000F049FC23681F
:10109000DB06EBD404F5E870BDE8104000F084BC3A
:1010A000036803B103441846704700BF0920704726
:1010B000704700BF70B504460D4608E02B6C6361B5
:1010C0002A462369214601209847082808D1296C1F
:1010D0002046FFF769FF06460028EFD00DF079FCA7
:1010E0000728FBD13046296CFFF7E2FF281D00F0EE
:1010F000F3FB00BF2DE9F0470C1D054692460FCCCF
:10110000ADF5727D03AE0FC60FCC0FC60FCC0FC668
:1011100094E80F0002ACD5F80C80D5F8189086E85A
:101120000F0000232846216C2360FFF73DFFBAF132
:10113000000F074614BF0A2609267FB1A36B46F0AD
:1011400010018DE810022A46636401202B46C04737
:1011500078BB38460DF5727DBDE8F087236C6B6176
:101160004FF4F07221467AA809F09DFA2B697AAA09
:10117000294630469847889B82468DE810023146C2
:1011800063642A462B460120C04790B94FF4F072A1
:101190007AA9204609F087FABAF1080F06D1216C26
:1011A0002846FFF701FF09260746C6E7BAF1070FF1
:1011B00005D0092738460DF5727DBDE8F087384621
:1011C000216CFFF775FF03A800F086FB406C7047A9
:1011D000F0B5CB6B0B640E1D0F4604460FCEF9B075
:1011E00001AD0FC50FCE0FC50FCE0FC596E80F008E
:1011F0004FF0FF3685E80F00009606E023696A4647
:10120000214698470828054608D110992046FFF73F
:10121000CBFE0028F2D0092079B0F0BD6846FFF778
:1012200013FF062DF7D139462046FFF743FF00BFD5
:1012300030B4DD6BC160826119461D64002230BC90
:1012400058E700BF70B5C66843690B6426B1012238
:10125000FFF750FF0DF0BDFB03690A4604460D463B
:10126000014602209847072807D0082803D12946BD
:101270002046FFF71FFF0DF0ACFB3046296CFFF74F
:1012800017FF281D00F028FBC2681AB1CA6B0A6458
:1012900000222FE79CE700BF704700BF836813B1AF
:1012A000014601201847704700B5042907D8DFE838
:1012B00001F00309060909000BB90F2A05D902201C
:1012C0005DF804FB01205DF804FB00EB8202184688
:1012D0005368019A13605DF804FB00BF10B584B039
:1012E000002303AC0A4600941946FFF7DDFF03987C
:1012F00004B010BD00B5042907D8DFE801F00309E8
:10130000060909000BB90F2A05D902205DF804FB74
:1013100001205DF804FB019900EB8202096851602D
:1013200018465DF804FB00BF10B584B004AC002380
:1013300044F8042D0A4600941946FFF7DBFF04B079
:1013400010BD00BFF0B5D36B1364151D07460E46E4
:101350000FCDADF50F7D17AC0FC40FCD0FC40FCD62
:101360000FC495E80F004FF0FF3584E80F00169585
:1013700010E016A8FFF7D8FF314616A8B84716AAFE
:10138000694678B9049B08209847052804460AD086
:10139000092807D026996846FFF706FE6A460C2101
:1013A0000028E6D0092416A8FFF74EFE20460DF5CA
:1013B0000F7DF0BD2DE9F04F0D46C96C8BB00C1DB3
:1013C000096807919146089400F0030B1E46002B14
:1013D00060D10902032307918DF825608DF8243030
:1013E0002B6DBBF1020F08BFAC6B13F0010340D1B2
:1013F000019300F008030393D4F80080B8F1000FC4
:1014000039D0022E43D0B4F8008067880434AB6C26
:1014100027F0010A0F2148469A44FFF75FFF8245F3
:1014200033D828F001039A4450452CBF00200120F6
:101430007F0007F0020708F0010847EA0807012FBC
:101440003ED035D3022F1CD1236823F000420292F4
:10145000BBF1000F76D128B1039900297ED0002A74
:1014600000F0A680002B77DB029B013304EB8304A2
:10147000C2E700230193022E3EDDFFF717FE00288E
:1014800040D009200BB0BDE8F08F0020D0E767689E
:101490000834BCE7022BA3DC0B0CDAB209048DF88C
:1014A0002530022304EB820407918DF8243097E75E
:1014B000BBF1000F02D0002840F0BD8004349BE750
:1014C000BBF1000F25D1A8B194E80C00991C4FEA9C
:1014D000D272D6D005F158010133069100F0A380F5
:1014E000201DFFF7DDFD06AB01462846AFF3008067
:1014F000002877D108347FE707A9484600F0EEFAC4
:101500000028BED1019B002B5CD108200BB0BDE8A8
:10151000F08F0D2148462F6AFFF7E0FE8742E9D1A0
:10152000AB6A9C42E6D12046FFF7F0FC0F21024651
:101530004846FFF7F9FE48462A460021FFF7F4FE29
:1015400007209FE70D2148462F6AFFF7C7FE874215
:1015500058D02368002B87DA043485E7029B3BB31D
:1015600005F15803271DCDF810B0DDF80C80DDF82B
:1015700008A00596A3461C4602E0B245B04616D028
:1015800038460694FFF78CFD06AB0146002228463C
:10159000AFF3008008F1010604370028EDD0029B6C
:1015A000059E43455C46DDF810B0D2D100E05C46B4
:1015B00048460D21FFF792FE069B2862AC626B62E3
:1015C00006205FE70F214846FFF788FE0E210246FE
:1015D0004846FFF7A9FE4846294A0F21FFF7A4FE17
:1015E00007204FE707460D214846FFF777FE022FF9
:1015F00028621DD12B46069A43F82C2F6B62AC62F1
:1016000006203FE7AB6A9C42A3D104220027A3181F
:101610000299A962EF622A636B632368BB421DDBF8
:101620000123019320E748460D21FFF757FE28626A
:10163000069B6B62E3E72046FFF768FC043406462E
:10164000AC632846AFF3008000283FF41AAF484649
:1016500032460F21FFF768FE072013E708460130E6
:1016600004EB8000FFF752FC0F2102464846FFF7CB
:101670005BFE48462A463946FFF756FE072001E73B
:1016800000000000002395E6012393E6022391E683
:10169000F0B50446C5B004290DD8DFE801F05303C6
:1016A0000C310F00012B4FEA124695B262D172192C
:1016B000102A40F29B80022045B0F0BD002BFAD1E9
:1016C000102AF8D82368D80600F1C68022AE30462A
:1016D000019200F073F9A06B019A0023012505FA2D
:1016E00003F1114203D0016846F82310043001339E
:1016F000042BF4D1A063304600F056F90020DBE75C
:10170000032BD8D1150C97B2EB19102BD3D8236823
:101710001E0700F1B58022AE304600F023F9ED003F
:10172000A36B4FB1043D711903EBC70053F8042BB1
:1017300041F8042F8342F9D13046A36300F0F0F85A
:101740000020B9E7002BB6D1A56B97B2201D01266A
:1017500006FA03F1394203F1010302D0296801605E
:101760000435102B00F10400F2D112F400503BD1EB
:10177000A563A1E7052B9ED17719202F9BD80F2EAB
:1017800066D92F46002D3AD12A460027002AA06BA1
:1017900072DD00EBC202014644A800EBC6008C38A3
:1017A00051F8045B40F8045F9142F9D1084697B1C3
:1017B000102E324644A938BF102201EBC202A2F516
:1017C000C4727900043A00EB810150F8045B42F8DE
:1017D000045F8842F9D1012B48D00F2EA16333D981
:1017E00017B102A800F094F8002065E70F2E3FF62D
:1017F00062AF00272268D10717D4002F60D022687B
:10180000510745D4012B4DD00F2E06D822A80193A5
:1018100000F07AF8019B002FB6D002A8019300F0E7
:101820007BF8019BC6F11002B0E722F00101052B05
:101830002160019320463BD022F0030240F8482B60
:1018400000F05AF8019BD8E722A800F059F8C7E742
:10185000102FCED9103FCDE723F01003236004F5FD
:10186000E870019200F0AAF8019A2FE70431A16311
:1018700022A800F03DF8B7E7002F99D10146AAE76A
:1018800023F00803236004F5A87000F06BF842E72A
:10189000204622F0040240F8D02B019300F03CF8DF
:1018A000019BAFE722A8019300F026F8019BB9E75E
:1018B00041F0020140F8481B00F026F8019B9CE72C
:1018C000012B03D00F2E3FF65FAF9FE722A80193B5
:1018D00000F012F8019B57E700F1340191E838005D
:1018E0009C46A6464CF8045D90E8FF0FE54600BD17
:1018F00090EC210B704700BF80EC210B704700BFBC
:1019000090EC200B704700BF80EC200B704700BFAD
:10191000D0EC200B704700BFC0EC200B704700BF1D
:10192000F0EC0201F0EC0211F0EC0221F0EC0231DB
:10193000F0EC0241F0EC0251F0EC0261F0EC0271CB
:10194000F0EC0281F0EC0291F0EC02A1F0EC02B1BB
:10195000F0EC02C1F0EC02D1F0EC02E1F0EC02F1AB
:10196000704700BFE0EC0201E0EC0211E0EC022164
:10197000E0EC0231E0EC0241E0EC0251E0EC02610B
:10198000E0EC0271E0EC0281E0EC0291E0EC02A1FB
:10199000E0EC02B1E0EC02C1E0EC02D1E0EC02E1EB
:1019A000E0EC02F1704700BFB0FC0181B0FC019196
:1019B000B0FC01A1B0FC01B1704700BFA0FC0181E7
:1019C000A0FC0191A0FC01A1A0FC01B1704700BFE7
:1019D000EC4600B52DE900502DE9FF1F4FF0000344
:1019E0002DE90C0001A9FFF7F3FBDDF840E012B090
:1019F000704700BFEC4600B52DE900502DE9FF1FF0
:101A00004FF000032DE90C0001A9FFF71BFCDDF8E6
:101A100040E012B0704700BFEC4600B52DE9005021
:101A20002DE9FF1F4FF000032DE90C0001A9FFF77E
:101A30002BFCDDF840E012B0704700BFEC4600B56B
:101A40002DE900502DE9FF1F4FF000032DE90C0098
:101A500001ABFFF7EDFBDDF840E012B0704700BFCF
:101A6000EC4600B52DE900502DE9FF1F4FF00003B3
:101A70002DE90C0001AAFFF765FCDDF840E012B08B
:101A8000704700BF027A1AB9437A43B9B020704751
:101A90000368013A02721A020260180E7047426827
:101AA000013B10B4437213680321141D01721A0222
:101AB000446002605DF8044B180E704700B585B0B5
:101AC00003AA0023009219460C22FFF7EDFB0398AE
:101AD00005B05DF804FB00BFF0E700BF2DE9F0435F
:101AE000064685B00F464FF000083846FFF7CAFF9C
:101AF000B028044623D0050627D400230DF10C0995
:101B0000194685000D22CDF800903046FFF7CCFB3A
:101B1000EDB2039BCDF80090600605F104054CBFC3
:101B20005D1BED18002319460D2230460395FFF783
:101B3000E1FB3846FFF7A6FFB0280446DBD1B8F139
:101B4000000F00F0958000201CE000F0F003802BD7
:101B50005DD0902B19D0A02B2CD0B02B3FD0C02B18
:101B60006CD000F0F803D02B0BD100F0070201324B
:101B700042F40022052301213046FFF789FD0028A9
:101B8000B3D0092005B0BDE8F08300F00D030D2BA4
:101B9000F7D003AD002300F00F0219460095304640
:101BA000FFF782FB0023009519460D223046FFF710
:101BB000A1FB9AE7C24302F007034FF47F621A4188
:101BC000010702F47F624FF0000348BF42F48042F5
:101BD00019463046FFF75CFD0028D2D185E7B128D1
:101BE00057D0B22868D0B32800F0958000F0FC03ED
:101BF000B42BC6D000F007020132012342F40022C8
:101C000019463046FFF744FD0028BAD16DE7384643
:101C1000FFF738FF24020443B4F5004FB1D024018C
:101C20000023A2B219463046FFF732FD0028A8D1A2
:101C300014F4004F18BF4FF0010856E7C6287DD0B6
:101C4000C72800F0868000F0F803C02B00F09480D5
:101C5000C82800F09F80C92893D13846FFF712FFAB
:101C6000020300F00F0002F470220130024381E70A
:101C700003AC43460E22414600943046FFF714FB66
:101C80000094304643460F224146FFF733FB40465F
:101C900078E73846FFF7F6FE00283FF472AF10F001
:101CA000F0037FF46EAF024619463046FFF7F0FCB2
:101CB00000287FF466AF18E700230DF10C090D2210
:101CC0001946CDF800903046FFF7EEFA3846FFF798
:101CD000D9FE02064FF002040CD5039B00F07F00F2
:101CE000A040034438460393FFF7CCFE030604F1FB
:101CF0000704F2D4039BCDF8009000F07F02A240CD
:101D000003F501740023144419460D223046039450
:101D1000FFF7F0FAE9E63846FFF7B4FE010300F0FA
:101D20000F0001F47021421C01230A43304619467A
:101D3000FFF7AEFC00287FF424AFD6E63846FFF765
:101D4000A1FE010300F00F0001F47021421C0323E7
:101D5000EBE73846FFF796FE00283FF412AF10F08D
:101D6000F0037FF40EAF024604213046FFF790FCEB
:101D700000287FF406AFB8E600F00F02013203231B
:101D800042F4202219463046FFF782FC00287FF4F7
:101D9000F8AEAAE63846FFF775FE00F0F00200F054
:101DA0000F031032013343EA0232E3E610B5C36C8D
:101DB00084B05A6803208DF80C00DC798DF80D4052
:101DC00012020833084601A901920293FFF786FE2A
:101DD00004B010BD08B5FFF77FFE806C08BD00BFE2
:101DE00008B5FFF779FEC06CC37900EB83000830BB
:101DF00008BD00BF08B50CF0ECFD00BF08B5FFF74B
:101E0000F9FF00BF704700BF094A136843F48073AD
:101E100010B50320136000F033F8002006F020FC1A
:101E2000044618B906F0C0FB204610BD0124FBE7AC
:101E300000200240034A0449136809680B441360F8
:101E4000704700BF9843002000000020014B186835
:101E5000704700BF9843002038B50446FFF7F6FFEF
:101E6000631C1CBF054B1B68054618BFE418FFF731
:101E7000EDFF401B8442FAD838BD00BF00000020AF
:101E8000074AD36823F4E0631B041B0C43F0BF63D1
:101E9000000243F4003300F4E0600343D360704772
:101EA00000ED00E0174B30B5DC68C4F30224C4F148
:101EB0000703251D042B28BF0423062D4FF0010521
:101EC00005FA03F303F1FF338CBF033C00241940F0
:101ED000A14005FA04F4013C2240002842EA010234
:101EE0004FEA0212ADBF00F1604000F00F00064B58
:101EF00000F56140B5BFD2B2D2B21A5480F80023C7
:101F000030BD00BF00ED00E014ED00E0002808DB6C
:101F10004209012300F01F0003FA00F0014B43F8CF
:101F20002200704700E100E090F82520022A10B559
:101F300003D00422C263012010BD0268046C116842
:101F4000836B21F00E011160116821F00101116015
:101F5000426C012102F01C0201FA02F262600024CC
:101F600080F8251080F8244013B19847204610BD12
:101F7000184610BD11B942600846704701207047ED
:101F800010B10160002070470120704703680122F2
:101F900003F01F01C3F300438A405B01064910B4FC
:101FA0005C58224205D05A50436813B15DF8044B87
:101FB00018475DF8044B7047140401402DE9F04FB9
:101FC00085B00B68DFF8A881674C01930023019A64
:101FD000DA4002D105B0BDE8F08F0126019A9E409B
:101FE00012EA060E00F0B1804A6822F01007022FB4
:101FF00016D14FEAD30900EB890903F0070AD9F893
:1020000020504FEA8A0A4FF00F0C0CFA0AFC25EA1E
:102010000C0C0D6905FA0AF545EA0C05C9F82050C3
:102020004FEA430C0325D0F800B005FA0CF5ED4358
:1020300002F0030A0BEA050B0AFA0CF9013F49EA20
:102040000B09012FC0F8009011D8876805EA07092D
:10205000CF6807FA0CF747EA09078760476827EA5D
:102060000609C2F300179F4047EA09074760BAF123
:10207000030F07D1C76A27EA0606C2F3C0079F40CD
:102080003E43C662C66835408E6806FA0CF6354394
:10209000C560D50059D5D8F8605045F00105C8F89D
:1020A0006050D8F8605023F0030606F1804605F032
:1020B000010506F58036039503F0030C039DB56812
:1020C0004FEA8C0C0F2707FA0CF7B0F1904F25EA76
:1020D00007073CD0254DA8423BD005F58065A842B6
:1020E00039D005F58065A84237D005F58065A8424E
:1020F00035D005F58065A84233D005F58065A84246
:1021000014BF0725062505FA0CF53D43B560256883
:102110006FEA0E06D70354BF35404EEA0505256029
:102120006568970354BF35404EEA05056560A568AC
:10213000D70254BF35404EEA0505A560E568920216
:1021400054BF35404EEA0505E56001333FE7002501
:10215000D9E70125D7E70225D5E70325D3E70425ED
:10216000D1E70525CFE700BF000401400004004887
:10217000001002402DE9F04F404CDFF808B1002379
:102180004FF0010A4FF00F0831FA03F201D1BDE818
:10219000F08F0AFA03F511EA050660D023F0030771
:1021A00007F1804707F5803703F0030EBA684FEA5E
:1021B0008E0E08FA0EF9B0F1904F02EA090C50D0D9
:1021C0002F4A90424FD002F5806290424DD002F5E6
:1021D000806290424BD002F58062904249D002F575
:1021E0008062904247D058450CBF0622072202FA6F
:1021F0000EF2944510D12268F643324022606268A4
:1022000032406260A2683240A260E2681640E66036
:10221000BA6822EA0902BA60066803275A0007FA78
:1022200002F223FA07F7164300EB8707066003F074
:102230000706D7F820E0B60008FA06F62EEA0606EA
:102240003E628668D243164086604668ED432E4063
:102250004660C6683240C260C26A1540C56201333A
:1022600092E70022C3E70122C1E70222BFE703226F
:10227000BDE70422BBE70522B9E700BF0004014027
:1022800000040048001800480369194214BF0120E7
:10229000002070470AB18161704781627047000079
:1022A000024B186800F4C060704700BF0070004027
:1022B000174B1A68B0F5007F02F4C0621CD1B2F56A
:1022C000007F15D01A6822F4C06242F400721A60CE
:1022D000104A116832224A430F49B2FBF1F2194603
:1022E00001325869400500D522B94B695B050DD410
:1022F00000207047013AF4E7B2F5806F1FBF1A68FB
:1023000022F4C06242F480621A60F1E70320704751
:10231000007000401C00002040420F0037B51E4DE9
:10232000AB6DDA00044618D5FFF7BAFFB0F5007FB1
:1023300023D1802C29D9A02C8CBF02200120174A40
:10234000136823F0070303431360136803F00703C4
:10235000181A18BF012003B030BDAB6D43F0805395
:10236000AB65AB6D03F080530193019BFFF798FFC2
:10237000AB6D23F08053AB65D8E7802C07D808D02D
:10238000A4F1700358425841D9E70020D7E7032051
:10239000D5E70220D3E700BF001002400020024032
:1023A000224B9A68D96812F00C0205D00C2A15D17C
:1023B00001F00301012918D119681D48090755BF0B
:1023C000D3F894101968C1F30321C1F3031150F835
:1023D00021004AB30C2A09D000207047042A22D0D9
:1023E000082A144818BF002070470020DA6802F05D
:1023F0000302022A15D00F49032A08BF0846DA68EB
:10240000D968DB68C3F34163C1F30621C2F302124A
:102410000133484301325B00B0FBF2F0B0FBF3F054
:1024200070470548EBE70448704700BF00100240C2
:102430003CF4000800127A000024F4002DE9F74370
:10244000054618B9012003B0BDE8F083A74C036826
:10245000A668E768D80606F00C0607F003073DD526
:102460001EB10C2E66D1012F64D12368990702D5C5
:10247000AB69002BE6D02368286A1A0756BFD4F848
:10248000943023681B0903F0F00383423BD2FFF72B
:1024900045FF0028D6D1236843F008032360236852
:1024A0002A6A23F0F003134323606368EA6923F484
:1024B0007F4343EA02236360FFF772FFA3688C4AFD
:1024C000C3F30313D35C03F01F03D840894B186098
:1024D000894B186806F0C4F80028B4D12B68D907D6
:1024E0005FD42B689A0700F19E802B68190700F1D2
:1024F000D2802B685A0700F10181AB6A002B40F0B3
:102500006A8100209FE7236843F008032360236863
:1025100023F0F003034323606368EA6923F47F43F5
:1025200043EA02236360002EC6D1FFF7F7FE0028BE
:10253000C2D087E7AB691BB3236843F00103236074
:10254000FFF784FC804623689B0711D5236843F07E
:102550000803236023682A6A23F0F00313432360EF
:102560006368EA6923F47F4343EA02236360B5E7C3
:10257000FFF76CFCA0EB08000228E4D9032062E717
:10258000236823F001032360FFF760FC8046236883
:102590009807A3D5FFF75AFCA0EB08000228F6D94C
:1025A000ECE7082E03D00C2E08D1032F06D12368A8
:1025B0009B0396D56B68002B93D143E76B68B3F50B
:1025C000803F10D1236843F480332360FFF73EFC43
:1025D00080462368980384D4FFF738FCA0EB0800FA
:1025E0006428F6D9CAE7B3F5A02F04D1236843F4D1
:1025F00080232360E6E7226822F48032226022688A
:1026000022F480222260002BE0D1FFF71FFC8046DD
:10261000236899037FF565AFFFF718FCA0EB08006E
:102620006428F5D9AAE7042E03D00C2E10D1022F6E
:102630000ED123685A0503D5EB68002B3FF402AF97
:1026400063682A6923F0F85343EA026363604CE746
:10265000EB687BB1236843F480732360FFF7F6FBDC
:10266000074623685B05EBD4FFF7F0FBC01B02288D
:10267000F7D983E7236823F480732360FFF7E6FB31
:102680000746236858057FF530AFFFF7DFFBC01B17
:102690000228F6D972E76B699BB1D4F8943043F005
:1026A0000103C4F89430FFF7D1FB0746D4F8943007
:1026B0009B073FF51EAFFFF7C9FBC01B0228F5D9EA
:1026C0005CE7D4F8943023F00103C4F89430FFF7AA
:1026D000BDFB0746D4F8943098077FF50AAFFFF7A3
:1026E000B5FBC01B0228F5D948E700BF0010024027
:1026F00022F400081C00002004000020A36DD90073
:1027000029D4A36D43F08053A365A36D03F08053D8
:102710000193019B4FF00108894F3B68DA051DD5F5
:10272000AB68012B2BD1D4F8903043F00103C4F8EF
:102730009030FFF78BFB41F288390746D4F8903090
:10274000980742D5B8F1000F3FF4D7AEA36D23F040
:102750008053A365D1E64FF00008DDE73B6843F402
:1027600080733B60FFF772FB81463B68DB05D7D483
:10277000FFF76CFBA0EB09000228F6D9FEE6052B5B
:1027800006D1D4F8903043F00403C4F89030CAE77F
:10279000D4F8902022F00102C4F89020D4F89020C0
:1027A00022F00402C4F89020002BC2D1FFF74EFBA8
:1027B00041F288390746D4F890309907C2D5FFF71F
:1027C00045FBC01B4845F6D9D8E6FFF73FFBC01BC9
:1027D0004845B3D9D2E6022B40F08F80E368EA6A1D
:1027E00003F00301914224D1296B03F070020139F7
:1027F000B2EB011F1DD1696B03F4FE42B2EB012F56
:1028000017D1AA6B073A03F4003118BF0122914295
:102810000FD1EA6B520803F4C001013AB1EB425FF9
:1028200007D12A6C520803F0C063013AB3EB426F40
:102830004AD00C2E3FF406AE23685A013FF502AE93
:102840002368DB003FF5FEAD236823F0807323602F
:10285000FFF7FCFA064623689F012FD4E268394B44
:102860001340EA6A13436A6B43EA02232A6B013A74
:1028700043EA0213AA6B120943EA4243EA6B520885
:10288000013A43EA42532A6C5208013A43EA42634E
:10289000E360236843F080732360E36843F0807350
:1028A000E360FFF7D3FA0546236898013FF529AEA8
:1028B000FFF7CCFA401B0228F6D95FE6FFF7C6FA0D
:1028C000801B0228C7D959E6236899013FF519AE44
:1028D000236843F080732360E36843F08073E36010
:1028E000FFF7B4FA054623689A013FF50AAEFFF7F1
:1028F000ADFA401B0228F6D940E60C2E3FF4A2ADFB
:10290000236823F080732360236813F0205F02BFE5
:10291000E36823F00303E360E36823F0887323F4A0
:102920008033E360FFF792FA054623689B017FF549
:10293000E8ADFFF78BFA401B0228F6D91EE600BF70
:10294000007000408C809DF92DE9F0410E46044650
:1029500010B90120BDE8F081414A136803F0070374
:102960008B422AD32368D90732D421688A075CD4E2
:102970003B4A136803F007039E425ED311F0040F35
:10298000384D65D10B0706D5AB68226923F4605337
:1029900043EAC203AB60FFF703FDAB68324AC3F3FF
:1029A0000313BDE8F041D35C03F01F03D8402F4B65
:1029B00018602F4B186805F053BE136823F0070307
:1029C0000B431360136803F007039942C1D1C9E7B1
:1029D0006268244D032A2B681BD113F0007FB8D006
:1029E000AB6823F003031343AB60FFF72FFA41F208
:1029F00088380746AB68626803F00C03B3EB820FBC
:102A0000B3D0FFF723FAC01B4045F3D90320BDE83C
:102A1000F081022A02D113F4003FE0E712B913F06B
:102A2000020FDCE713F4806FD9E70E4AA0689368C1
:102A300023F0F003034393609AE7136823F007033E
:102A400033431360136803F007039E4281D195E777
:102A5000AB68E26823F4E0631343AB6092E700BF26
:102A6000002002400010024022F400081C00002058
:102A700004000020054B064A9B68C3F30223D35C85
:102A8000044A106803F01F03D8407047001002404A
:102A900032F400081C000020054B064A9B68C3F373
:102AA000C223D35C044A106803F01F03D840704768
:102AB0000010024032F400081C0000200F230360C5
:102AC0000B4B9A6802F0030242609A6802F0F0022F
:102AD00082609A6802F4E062C2609B68DB0803F4DB
:102AE000E0630361034B1B6803F007030B6070474F
:102AF0000010024000200240F8B5454BDA6812F0A1
:102B0000030F05460E461C4600682AD0DA6802F01C
:102B1000030282423CD1002A3AD0DB686A68C3F3E0
:102B200002130133934233D1236823F0806323607F
:102B3000FFF78CF9074623681A0132D4AF68002EDC
:102B400036D0012E50D12269286922F4C0024008F3
:102B500022F4FE42013842EA072242EA4052226150
:102B600032E0022810D0032814D0012810D11B68AD
:102B70009F0738D5E3686A6823F07303013A184366
:102B800040EA0210E060CFE71B6813F4806FF1D1D8
:102B90000120F8BD1A689103ECD41B6813F4802F50
:102BA000F5E7FFF753F9C01B0228C4D90320F8BD8D
:102BB0002169EB6821F41F3121F4407141EA0721BA
:102BC0001B0941EA43412161236843F0806323608C
:102BD000FFF73CF9064623681B0113D52369AA6950
:102BE000134323610020F8BD2369686923F0C063A3
:102BF000400823F4FE43013843EA072343EA4063D5
:102C00002361E1E7FFF722F9801B0228E3D9CDE732
:102C100000100240F8B53D4BDA6812F0030F05468C
:102C20000E461C46006828D0DA6802F00302824291
:102C30003AD1002A38D0DB686A68C3F30213013343
:102C4000934231D1236823F080532360FFF7FEF8CD
:102C5000074623689A0030D4A868002E34D06369F0
:102C6000296923F0C063490823F4FE43013943EA8C
:102C7000002343EA4163636132E0022810D0032855
:102C800014D0012810D11B689F0738D5E3686A6803
:102C900023F07303013A184340EA0210E060D1E7E1
:102CA0001B6813F4806FF1D10120F8BD1A689103FD
:102CB000ECD41B6813F4802FF5E7FFF7C7F8C01BAF
:102CC0000228C6D90320F8BD6269EB6822F41F32DE
:102CD00022F4407242EA00221B0942EA4342626146
:102CE000236843F080532360FFF7B0F8064623685B
:102CF0009B0005D563696A69134363610020F8BDD1
:102D0000FFF7A4F8801B0228F1D9DBE7001002408E
:102D10002DE9F347066816F40066044624D0416E98
:102D2000B1F5800F2CD002D8C1B101261CE0B1F55D
:102D3000000F0DD0B1F5400FF7D14D4A616ED2F8BA
:102D4000883023F440030B43C2F8883000260BE0A0
:102D5000474AD36843F48033D360EEE70430FFF78B
:102D6000CBFE06460028E8D02368D80406D5A16E1D
:102D7000B1F1807F74D008D8A9B10126354621E091
:102D800000212030FFF746FFEBE7B1F1007F04D0D0
:102D9000B1F1407FF1D1354609E0354AD36843F4BB
:102DA0008033D360F7E7201DFFF7A6FE0546002D10
:102DB0005CD12F4AA16ED2F8883023F040730B43C8
:102DC000C2F888302368990340F14F81284FBB6DCA
:102DD000DA0040F176814FF00008DFF89890D9F8DA
:102DE000003043F48073C9F80030FFF72FF88246B3
:102DF000D9F80030DB053FD5002D44D1D7F890300D
:102E000013F4407315D0D4F88420934211D0D7F82E
:102E10009030D7F8902042F48032C7F89020D7F84D
:102E2000902023F4407322F48032C7F89020C7F832
:102E30009030D80709D5FFF709F841F288390546DF
:102E4000D7F89030990740F10981D7F89030D4F83D
:102E5000842023F440731343C7F89030354612E0C2
:102E6000002104F12000FFF7D5FE9FE72E46A9E7D9
:102E70000010024000700040FEF7E8FFA0EB0A00DF
:102E80000228B5D90325B8F1000F03D0BB6D23F09C
:102E90008053BB652368DA0708D59049A06BD1F849
:102EA000882022F003020243C1F888209F0708D53A
:102EB0008A49E06BD1F8882022F00C020243C1F865
:102EC00088205E0708D58549206CD1F8882022F03B
:102ED00030020243C1F88820180708D57F49606C8A
:102EE000D1F8882022F0C0020243C1F88820D90618
:102EF00008D57A49A06CD1F8882022F440720243A8
:102F0000C1F888209A0608D57449E06CD1F8882069
:102F100022F440620243C1F888209F0508D56F491A
:102F2000E06DD1F8882022F440220243C1F88820C5
:102F30005E0508D56949206ED1F8882022F4401238
:102F40000243C1F88820580608D56449206DD1F89D
:102F5000882022F440520243C1F88820190608D57F
:102F60005E49606DD1F8882022F440420243C1F8E6
:102F70008820DA0508D55949A06DD1F8882022F4B7
:102F800040320243C1F888209B040FD5534AE16EBA
:102F9000D2F8883023F040630B43B1F1006FC2F8E0
:102FA000883064D1D36843F48013D36023681F034F
:102FB0000FD54A4A216FD2F8883023F040630B4383
:102FC000B1F1006FC2F888305CD1D36843F480134C
:102FD000D36023685E030FD5404A616FD2F8883012
:102FE00023F040630B43B1F1006FC2F8883054D135
:102FF000D36843F48013D3602368580412D537494B
:10300000A26FD1F8883023F040531343B2F1805FB0
:10301000C1F888304CD10221201DFFF76DFD00283A
:1030200018BF05462268110408D52C49E06FD1F875
:10303000883023F080430343C1F88830D30309D597
:10304000264AD4F88010D2F8883023F000430B438E
:10305000C2F88830284602B0BDE8F087FEF7F6FED9
:10306000401B48457FF6ECAE0CE7354612E7B1F160
:10307000806F9BD10121201DFFF73EFD002818BF66
:10308000054693E7B1F1806FA3D10121201DFFF721
:1030900033FD002818BF05469BE7B1F1806FABD127
:1030A0000121201DFFF728FD002818BF0546A3E7D2
:1030B000B2F1005FB6D1022104F12000FFF7AAFDB2
:1030C000ADE7BB6D43F08053BB65BB6D03F0805330
:1030D0000193019B4FF001087FE600BF0010024002
:1030E00003685A6822F0E0025A604268B2F5827FB3
:1030F0000AD18268B2F5004F02D0B2F5806F03D1D9
:103100001A6822F040021A60826AB2F5005F07D1A5
:103110001A6822F400521A601A6842F400521A60C7
:10312000012380F85D30002380F85C300320704775
:1031300070B504460D4616462368986810F0800066
:1031400000D170BD6A1CF8D0FEF780FE801B85425E
:10315000F2D82046BDE87040FFF7C2BFF8B505467B
:103160000C4616461F4629688868204000D1F8BDE5
:10317000B4F5C06F08BF0B7B731CF5D0FEF766FE7D
:10318000C01B8642EFD82846BDE8F840FFF7A8BF2D
:1031900070B513460D4616460A464FF4C051044614
:1031A000FFF7DCFF28B1236E43F0200323660320E2
:1031B0000FE0324629462046FFF7BAFF0028F2D139
:1031C00033462A464FF4C0612046FFF7C7FF002868
:1031D000E9D170BD704770B5044600284AD000237D
:1031E000836290F85D3003F0FF021BB980F85C2029
:1031F000FFF7F0FF0223216884F85D300B68E26876
:1032000023F04003B2F5E06F0B604FF000032ED9BE
:103210001846B2F5706F18BFA362236B2BB9B2F5D5
:10322000E06F8CBF022301232363A6686368A5694E
:1032300033432669334366693343E6693343266A79
:103240003343A66A334305F4007633430B60636A65
:103250001A43636B2D0C1A4305F004052A430243FD
:10326000012300204A60206684F85D3070BD4FF471
:103270008050D0E7012070BD2DE9F8431E4690F83C
:103280005C30089F012B04460D46914600F01581E5
:10329000012380F85C30FEF7D9FD94F85D30616859
:1032A000DBB2012B80460AD0B1F5827F40F003816A
:1032B000A068002840F0FF80042B40F0FC80002D27
:1032C00049D0B9F1000F46D0002E44D094F85D30BB
:1032D000E2682068C4F84090042B1CBF052384F8E2
:1032E0005D3000232366B2F5E06FA4F84660E68700
:1032F000E3642365A4F84460A563A687436801D806
:10330000012E2AD923F48053436003685B065EBF15
:10331000036843F040030360B2F5E06F56D909B18A
:10332000012E07D135F8023BC360E38FA563013B53
:103330009BB2E3870125E38F9BB28BB9B4F846308B
:103340009BB26BB9424639462046FFF721FF002861
:1033500034D020232366012030E043F48053D3E7A8
:103360002268936899070DD5E38F9BB253B14DB195
:10337000A36B33F8021BD160A363E38F013B9BB2C5
:10338000E38700259368DB070FD5B4F846309BB27E
:103390005BB1236CD26823F8022B2364B4F8463067
:1033A000013B9BB2A4F846300125FEF74FFDA0EB90
:1033B00008008742BFD87E1CBDD00320012384F8BB
:1033C0005D30002384F85C30BDE8F88309B1012E3C
:1033D0000BD1E38F9BB2012B51D935F8023BC3606F
:1033E000E38FA563023B9BB2E3870125E38F9BB28A
:1033F00023B9B4F846309BB2002BA3D0226893685F
:10340000980711D5E38F9BB273B16DB1E38F9BB277
:10341000012BA36B3BD933F8021BD160A363E38F6D
:10342000023B9BB2E387002522689368D9071DD52C
:10343000B4F846309BB2CBB1B4F846309BB2012B06
:10344000236C2CD9D16823F8021B2364B4F84630CE
:10345000023B9BB2A4F84630B4F846309BB2012B35
:1034600003D8536843F4805353600125FEF7EEFC04
:10347000A0EB08008742B9D87B1CB7D09DE72B781A
:103480000373A36B0133A363E38F013BABE71B78AB
:103490001373A36B0133A363E38F013BC1E7127B7B
:1034A0001A70236C01332364B4F84630013B9BB29D
:1034B000A4F84630D9E7022080E70220BDE8F8836F
:1034C00090F85D00704770470368DA6842F00102C7
:1034D000DA609968064A0A40062A06D0B2F5803FAB
:1034E0001EBF1A6842F001021A600020704700BF38
:1034F00007000100704770477047704703681A69FA
:10350000910710B504460FD5DA6892070CD56FF015
:1035100002021A619B6901229907027700F08580F7
:10352000FFF7E9FF0023237723681A69520710D5B4
:10353000DA6850070DD56FF004021A619B69022208
:1035400013F4407F2277204675D0FFF7D4FF002385
:10355000237723681A6911070FD5DA6812070CD58B
:103560006FF008021A61DB6904229B07227720466C
:1035700067D0FFF7C0FF0023237723681A69D006BE
:1035800010D5DA68D1060DD56FF010021A61DB692B
:10359000082213F4407F2277204658D0FFF7ABFF74
:1035A0000023237723681A69D20708D5DA68D00781
:1035B00005D56FF001021A61204604F0EDFA236888
:1035C0001A69110608D5DA68120605D56FF080026F
:1035D0001A61204600F0C3F823681A69D00508D59F
:1035E000DA68110605D56FF480721A61204600F082
:1035F000B7F823681A69520608D5DA68500605D567
:103600006FF040021A612046FFF777FF23681A69BE
:10361000910622D5DA6892061FD56FF02002204667
:103620001A61BDE8104000F099B8FFF763FF20462B
:10363000FFF762FF76E7FFF75DFF2046FFF75CFFCD
:1036400085E7FFF757FF2046FFF756FF93E7FFF7A1
:1036500051FF2046FFF750FFA2E710BD304A036834
:10366000904212D0B0F1804F0FD0A2F59432904228
:103670000BD002F58062904207D002F58062904242
:1036800003D002F59432904219D14A6823F07003B6
:103690001343234A90421DD0B0F1804F1AD0A2F5B7
:1036A0009432904216D002F58062904212D002F518
:1036B000806290420ED002F5943290420AD0194AAC
:1036C000904207D002F58062904203D002F58062FA
:1036D000904203D1CA6823F4407313434A6923F02C
:1036E0008003134303608B68C3620B6883620C4BD7
:1036F00098420FD003F5006398420BD003F5406366
:10370000984207D003F58063984203D003F58063A5
:10371000984201D10B69036301234361704700BFE5
:10372000002C01400040014010B50446A0B190F8C3
:103730003D3003F0FF021BB980F83C20FFF7C3FEC9
:10374000022384F83D302068211DFFF787FF012305
:1037500084F83D30002010BD012010BD7047704737
:10376000704703681A6822F490721A609A6822F00F
:1037700001029A60202383670023036670470000DC
:10378000836F202B49D1002945D0002A43D090F8DF
:103790007030012B41D0012380F870308368A0F88D
:1037A0005820A0F85A20B3F5805F4FF00002416521
:1037B000026620D10269E2B940F2FF12A0F85C2053
:1037C0000022C2672222826702689168B3F5805F97
:1037D00041F0010191601CD10369D3B9104B11680C
:1037E000036641F49071002380F870301160184630
:1037F0007047FF22E2E723B90269002AF9D07F224D
:10380000DCE7B3F1805FD9D10269002AF7D03F220B
:10381000D4E7044BE3E7012070470220704700BF64
:10382000853800082B3800087047826F222A10B5AF
:10383000026821D1928C90F85C40416D22400A7060
:10384000426D01324265B0F85A20013A92B2A0F8B6
:103850005A20B0F85A2092B29AB901680C6824F440
:1038600090740C608C6824F001048C6020218167C6
:10387000026603F067FF10BD138B9BB243F0080391
:10388000138310BD826F222A10B502681FD1948C59
:10389000B0F85C100C40416D21F8024B4165B0F866
:1038A0005A10013989B2A0F85A10B0F85A1089B2EA
:1038B00091B9146824F490741460946824F001049D
:1038C000946020228267016603F03CFF10BD138BD9
:1038D0009BB243F00803138310BD70470368DA6995
:1038E000196870B540F60F06324204469D680AD149
:1038F000960670D58E066ED5036E002B00F08E8076
:10390000BDE87040184715F0010002D111F4907F16
:1039100061D0D60707D5CD0505D501251D62E56F18
:1039200045F00105E567960706D528B102251D6219
:10393000E56F45F00405E567550706D528B1042570
:103940001D62E56F45F00205E567160708D58D068F
:1039500000D428B108201862E06F40F00800E0674A
:10396000100508D54E0106D54FF400601862E36FCC
:1039700043F02003E367E36F002B4FD0950605D596
:10398000880603D5236E0BB1204698472268E56F61
:1039900092685106204602D415F0280517D0FFF78B
:1039A000E0FE23689A6852060DD59A68E06E22F010
:1039B00040029A6038B11A4B8363FEF7B5FA68B3D8
:1039C000E06E836B9CE72046FFF787FF70BDFFF733
:1039D00084FFE56770BDD60209D5680207D54FF4AC
:1039E000801220461A62BDE8704000F00ABB16063D
:1039F00005D50D0603D5636E83B1204680E75006DA
:103A00000CD54A060AD51A6822F040021A60202313
:103A10006367002363662046FFF706FF70BD00BFA3
:103A2000253A000808B5806A0023A0F85A30A0F8AB
:103A30005230FFF752FF08BD0268C169F8B504466D
:103A4000836800691568034360690343BA480B4300
:103A50002840034313605368E06823F44053034352
:103A60005360B64BA0699A421CBF236A18439368FF
:103A700023F4306303439360B14B9A4219D103F5A9
:103A80005843B04AD3F8883003F00303B1F5004F30
:103A9000D35C40F03881082B00F28F80DFE813F010
:103AA0001A01CA00F9008D0014018D008D008D00EF
:103AB0003600A54B9A4207D103F5E633A34AD3F863
:103AC000883003F00C03E1E7A14B9A4223D103F5C0
:103AD000E433D3F8883003F03003102B00F0F1808A
:103AE0000BD8002B00F0F380B1F5004F4FF001022E
:103AF0004FF0000300F0F880A8E0202B00F0C68013
:103B0000302BF1D1B1F5004F40F0B8806068430828
:103B100003F58033C3E08F4B9A421ED103F5E233A5
:103B2000D3F8883003F0C003402B00F0BB800AD8E4
:103B30007BB9824B9A4240F0CA80FEF79BFF00237C
:103B4000B0BB02463AE0802B00F09D80C02B00F015
:103B5000B0807A4B9A42C7D12FE07F4B9A4211D165
:103B600003F5E033D3F8883003F44073B3F5807F76
:103B700000F09880DCD9B3F5007F00F08480B3F5C5
:103B8000407FE4E76D4B9A42AED103F5C833D3F8DA
:103B9000883003F44063B3F5806F00F08380C7D9A9
:103BA000B3F5006F6FD0B3F5406FD0E76B480223D9
:103BB000626802EB4201814205D90122002323669B
:103BC00063661046F8BDB0EB023FF6D8082B2ED83E
:103BD000DFE803F0052D1C2D242D2D2D2700FEF7E9
:103BE00049FF62684FF4807156080027E1FB0067C7
:103BF000002330463946FDF703F80022584BA0F564
:103C000040719942D9D82368D860D7E755485508FC
:103C100000230021401941F10001ECE7FEF7C0FB51
:103C2000DFE750080021002310F50000F3E7012230
:103C30000020E3E7FEF730FF4EE0FEF71BFF62686F
:103C400000EB5203B3FBF2F39BB20022A3F110008E
:103C50004FF6EF718842B0D82168CB60AEE7FEF72F
:103C60001BFFECE76068430803F5740303F510538A
:103C7000B3FBF0F3E8E7FEF793FBE0E76068430887
:103C800003F50043F4E72D4B9A428FD0B1F5004F76
:103C9000E8D16068430803F1F47303F59043B3FB84
:103CA000F0F31FE0254B9A420BD1FEF779FB04237A
:103CB00046E7224B9A427FF425AF4FF40040082399
:103CC00076E7B1F5004FD6D1FEF76AFB04E0B1F517
:103CD000004FB2D1FEF7CEFE61684A0802EB400306
:103CE000B3FBF1F39BB20022A3F110004FF6EF718A
:103CF00088423FF662AF23F00F012068C3F342030E
:103D00000B43C3605AE7082B3FF657AF01A252F8A6
:103D100023F000BF3B3C00085F3C0008653C000806
:103D2000BB3B0008773C0008BB3B0008BB3B0008DE
:103D3000BB3B00087D3C0008F369FFEF00800040BA
:103D4000003801403AEF0008004400403EEF000810
:103D500000480040004C0040005000400024F400A7
:103D6000FFFC0F00000024F4436ADA0710B506D503
:103D70000168846A4A6822F4003222434A609C0740
:103D800006D50168C46A4A6822F4803222434A6038
:103D9000590706D50168046B4A6822F48022224341
:103DA0004A601A0706D50168446B4A6822F400424B
:103DB00022434A60DC0606D50168846B8A6822F4D7
:103DC000805222438A60990606D50168C46B8A68CE
:103DD00022F4005222438A605A060FD50168046C0F
:103DE0004A6822F480122243B4F5801F4A6005D14C
:103DF0004A68446C22F4C00222434A601B0606D57E
:103E00000268816C536823F400230B43536010BD98
:103E10002DE9F041069D04460F4616469846216856
:103E2000CA6937EA02030CBF01220022B24202D063
:103E30000020BDE8F081681CF2D0FEF707F8A0EB87
:103E4000080085422068036800D37DB923F4D0734D
:103E50000360836823F00103836020236367A36703
:103E6000002384F870300320BDE8F0815A07D6D5CE
:103E7000C3691B05D3D54FF400630362036823F4C1
:103E8000D0730360836823F001038360202363679A
:103E9000A367E367E4E72DE9F7439846436F202BD8
:103EA00004460E4691464CD1002948D0002A46D0FF
:103EB00090F87030012B44D0012380F87030002539
:103EC0002123C5674367FDF7C1FFA368A4F850909D
:103ED000B3F5805F0746A4F8529003D123690BB96C
:103EE00035461E46002384F87030B4F85220CDF8D1
:103EF000008092B23B463AB940212046FFF788FF46
:103F000040B92023636706E0002280212046FFF7A6
:103F10007FFF18B1032003B0BDE8F08322685EB9CB
:103F200035F8023BC3F308031385B4F85230013B64
:103F30009BB2A4F85230D8E716F8013BF4E7012011
:103F4000E9E70220E7E773B504460026C667FDF7F8
:103F50007DFF23681B681A07054615D423681B6874
:103F60005B070AD56FF07E43009300222B464FF487
:103F700080012046FFF74CFF90B9202300206367A3
:103F800084F87000A3670CE06FF07E430093324624
:103F900003464FF400112046FFF73AFF0028DDD01A
:103FA000032002B070BD10B5044640B3436F1BB987
:103FB00080F8703004F018FB2268242363671368CC
:103FC00023F0010313602046FFF736FD012816D0C9
:103FD000636A13B12046FFF7C7FE23685A6822F4CC
:103FE00090425A609A6822F02A029A601A6842F057
:103FF000010220461A60BDE81040FFF7A4BF01206F
:1040000010BD704770B58AB000248DF804008DF89B
:1040100005108DF806202146182204A81E46029499
:10402000CDF80B4006F04AFB3F23ADF810308A2351
:10403000ADF8123001AB06930323079302AD0723BB
:10404000214604A80895099300F0FCFAA04215DB6C
:104050009DF8080080B9029A9DF80B30C2F30F2238
:1040600032809DF80C2043EA02230E9A1380039BB2
:104070000F9AC3F30F2313800AB070BDFF20FBE734
:1040800000B589B018228DF80400002102A806F0BE
:1040900015FB3F23ADF808308523ADF80A3001AB9E
:1040A00004930DF107020123002102A80593069253
:1040B000079300F0C7FA0028ACBF9DF80700FF2067
:1040C00009B05DF804FB10B58EB08DF81C008DF8BA
:1040D0001D1002F110000DF11E0152F8044B41F8C1
:1040E000044B8242F9D18DF82E309DF840308DF886
:1040F0002F309DF844308DF83030129BCDF83130A0
:1041000018229DF84C308DF83530002101A806F0BA
:10411000D5FA3F23ADF804308623ADF8063007AB5F
:1041200003931A2304930DF1030305930021012344
:1041300001A8069300F086FA0028ACBF9DF80300A2
:10414000FF200EB010BD00B58BB0ADF80800ADF883
:104150000A108DF80C200021182204A88DF80D30CB
:1041600006F0ACFA3F23ADF810309723ADF81230CB
:1041700002AB0693062307930F2305930DF1070364
:1041800008930021012304A8099300F05BFA00289A
:10419000ACBF9DF80700FF200BB05DF804FB10B525
:1041A0008EB018248DF824201A689B88ADF8293029
:1041B0009DF840308DF82B30BDF84430ADF82C30F0
:1041C000BDF84830ADF82E30BDF84C30ADF8303089
:1041D000BDF85030ADF83230BDF85430ADF82000A5
:1041E000ADF82210CDF82520ADF834302246BDF8C8
:1041F0005830ADF83630002102A806F05FFA3F23B0
:10420000ADF808309C23ADF80A3008AB04930F23B7
:1042100003930DF1070306930021012302A80594DF
:10422000079300F00FFA0028ACBF9DF80700FF20AD
:104230000EB010BD00B589B01822ADF804008DF89D
:10424000061002A8002106F039FA3F23ADF8083025
:104250009F23ADF80A3001AB0493032305930F238A
:1042600003930DF1030306930021012302A8079392
:1042700000F0E8F90028ACBF9DF80300FF2009B06A
:104280005DF804FB00B589B01822002102A806F0F1
:1042900015FA3F23ADF8083040F20113ADF80A30AB
:1042A0000DF1070306930021012302A8079300F0F4
:1042B000C9F90028ACBF9DF80700FF2009B05DF8E0
:1042C00004FB10B5012B8EB00CBF02241024ADF8F6
:1042D0000800ADF80A10ADF80C2010998DF80E30DA
:1042E00022460DF10F0006F0DEF91822002108A881
:1042F00006F0E4F93F23ADF820304FF48B73ADF8AE
:10430000223002AB0A930F2309930DF107030C939C
:1043100007340123002108A80B940D9300F092F9B3
:104320000028ACBF9DF80700FF200EB010BD10B5EF
:104330007B2AA8B014462CDCADF82000ADF8221082
:104340000DF1250019468DF8242006F0ACF918224D
:10435000002102A806F0B2F93F23ADF8083040F280
:104360002113ADF80A3008AB04930F2303930534EF
:104370000DF107030693E4B20123002102A805947E
:10438000079300F05FF9002805DB9DF8070028B0CF
:1043900010BD4220FBE7FF20F9E710B5142A8EB0CC
:1043A000144629D8ADF81C00ADF81E100DF12100FF
:1043B00019468DF8202006F076F91822002101A870
:1043C00006F07CF93F23ADF8043040F22313ADF83A
:1043D000063007AB03930DF1030305930534012366
:1043E000002101A80494069300F02CF9002805DBB5
:1043F0009DF803000EB010BD4220FBE7FF20F9E757
:1044000010B50C467E2CA8B0114627DC22468DF84C
:1044100020000DF122008DF8214006F044F9182209
:10442000002102A806F04AF93F23ADF808300C231A
:10443000ADF80A3008AB049302340DF1070306937C
:10444000E4B20123002102A80594079300F0FAF8D2
:10445000002805DB9DF8070028B010BD4220FBE7CF
:10446000FF20F9E700B589B018228DF804008DF817
:10447000051002A8002106F021F93F23ADF808300D
:104480000F23ADF80A3001AB0493022305930DF11D
:10449000030306930021012302A8079300F0D2F83A
:1044A0000028ACBF9DF80300FF2009B05DF804FBB5
:1044B00030B585B00DF10E03009305460C4603ABF5
:1044C0000DF109020DF10A0102A800F02FF8C0B2A7
:1044D00068B9BDF80A10BDF80E200B0A2B7002F067
:1044E0000F0343EA012302F0F0021343238005B0D7
:1044F00030BD00B589B01822002102A806F0DEF810
:104500000323ADF80830ADF80A300DF10703069328
:104510000021012302A8079300F094F80028ACBF03
:104520009DF80700FF2009B05DF804FB2DE9F0437A
:1045300000248BB08146884617462146182204A8DD
:104540001E46019402948DF80C4006F0B7F804233F
:10455000ADF810300123ADF8123001AD092321462A
:1045600004A80895099300F06DF8A0421CDB9DF8A3
:104570000400B0B99DF8053089F80030BDF8063068
:10458000A8F800309DF808303B70029A9DF80B3077
:10459000C2F30F2232809DF80C2043EA0223129AC4
:1045A00013800BB0BDE8F083FF20FAE737B5084D64
:1045B0000446204600F059F908B103B030BD01A906
:1045C000204600F091F90199284600F058F9F0E7EB
:1045D000A443002070B508B10F4BD86101F0E2FF91
:1045E0000E480F4E0D4D00F03DF90E4800F03AF91F
:1045F0000024311928468C3400F04DF9B4F52F6FA2
:10460000F7D1054C22680AB100209047A36813B186
:10461000BDE87040184770BD780E00209C43002014
:10462000980E0020A4430020054B02681A60C2685F
:10463000DA6002691A6182699A6182689A607047D9
:10464000780E00202DE9F043A5B04688B0F8008030
:10465000594FDFF86C910023044602A80D460193E0
:1046600000F000F9384600F051F9092853DD63885D
:104670002288277BA1688DF81370C3F3090343EAEE
:10468000822301228DF8102005A83A46ADF811309A
:1046900006F009F8494B1B6913B1391D04A8984766
:1046A000002D78D1C6F3090545EA8825444E424FCE
:1046B000ADB2FDF7CBFB8046FDF7C8FBA0EB0800D1
:1046C000B0F57A7F4AD8304600F0CFF80028F3D111
:1046D00001A9304600F0F6F801990B7A042B09D1B4
:1046E000487A91F888300F28A3F103022CD01BD808
:1046F0000E2852D0384600F0B8F8002858D030467E
:1047000000F0B3F8002853D00199384600F0C3F800
:1047100000230193CDE704A9484600F0D3F804999B
:10472000384600F0B8F89DE7102817D03E28E1D1B0
:10473000C87A62689042DDD11A1F63699A4228BF25
:104740001A4662610C311CE0B1F80D30AB4205D164
:1047500063680F2B0FD0CB7A002BCBD0019911B10E
:10476000154800F08CF802A8FFF720FF4FF0FF304B
:1047700025B0BDE8F08363699A4228BF1A4662619A
:104780000B31206905F08FFF0B48019900F077F895
:1047900002A8FFF70BFF0020EAE78A89AA42DDD1D1
:1047A0009A1F63699A4228BF1A4662610E31E8E790
:1047B000019902A8AAE700BF9C430020780E0020C0
:1047C000A443002073B500230B4C0C4D0C4E0193F9
:1047D000204600F04AF808B102B070BD01A9204699
:1047E00000F070F8EB6913B101980830984701990F
:1047F000304600F050F8EBE7A4430020780E00208C
:104800009C43002037B500231348019300F02DF896
:10481000D8B901A9104800F055F8104BDB6893B1E6
:104820000198802108309847C5B2019985B10B7A6B
:1048300081F88850042B0BD18B7AE81E834207D174
:10484000074800F028F8002000E0012003B030BD48
:10485000014800F014F8F6E79C430020780E002091
:10486000A4430020006040607047EFF3108272B6EE
:1048700003681B1A5842584182F310887047EFF3BF
:10488000108372B602680A60486001600A6851606D
:1048900083F310887047EFF3108372B642684A6062
:1048A000086041604A68116083F310887047EFF335
:1048B000108272B690E80A00196001684B6082F3BA
:1048C0001088704738B50C46EFF3108572B6036850
:1048D0000B600068FFF7EBFF22680023136022687B
:1048E000536085F3108838BD38B50C46EFF310855A
:1048F00072B643680B604068FFF7D9FF2268002357
:1049000013602268536085F3108838BDEFF310817F
:1049100072B602680023824203D181F310881846E0
:10492000704701331268F6E708B500F0D5FF0020A4
:1049300008BD70B5054646692A694068B5F9084062
:104940000B4686B0296876B1AD6965B1842C14BF79
:104950000334002402958DE8500000F05EFF0590BE
:10496000059806B070BD842C14BF0334002405AD37
:1049700092B28DE8300000F081FF0128F0D00020D5
:10498000EFE7000010B50F4B1A68824218D35C683D
:104990001919884201BF41681846091959604468CD
:1049A00001198A4207D1084909688A421FBF516824
:1049B0001268091941609842026018BF186010BD62
:1049C0001346E1E708310020881900202DE9F04165
:1049D000044600F0B7FF3D493D4D0B68FBB93D4A29
:1049E00056071CBF07323C4B3C4E1ABF22F0070251
:1049F0009B1A41F270731344083B23F00703002015
:104A000070603260586018600B60981A1360344B05
:104A100050601860334B18604FF000432B602F68D4
:104A2000274216D1002C41D004F1080358071CBFBF
:104A300023F00703083363B12A4A1668B34290464D
:104A400007D8264A15686868834204D809688D42E9
:104A500007D100242AE02C68002CF7D02A462546EE
:104A6000F1E7296814681160C21A102A0FD9E818F2
:104A7000410708D04FF0500383F31188BFF36F8FC5
:104A8000BFF34F8FFEE742606B60FFF77BFF144977
:104A90006B680868F61A1F4386424FF00003C8F897
:104AA000006038BF0E6008346F602B6000F0E4FFD8
:104AB000630708D04FF0500383F31188BFF36F8F63
:104AC000BFF34F8FFEE72046BDE8F0818819002034
:104AD000FC3000208C190020FC3000200831002020
:104AE000043100200031002010B5044670B3184A8C
:104AF00050F8043C1268134208D14FF0500383F37E
:104B00001188BFF36F8FBFF34F8FFEE750F8081C7B
:104B100041B14FF0500383F31188BFF36F8FBFF3A0
:104B20004F8FFEE723EA020340F8043C00F00AFF3F
:104B3000084A54F8043C1168A4F108000B441360BF
:104B4000FFF720FFBDE8104000F096BF10BD00BF8A
:104B5000FC3000200031002000F1080343604FF0DA
:104B6000FF32C3600361002382600360704700234B
:104B70000361704743684B609A688A609A68516025
:104B80009960036808610133036070470A68531C29
:104B900030B50AD103695A684A6091608B605960E8
:104BA000036808610133036030BD00F108035C68ED
:104BB0002568AA42EFD32346F9E741688268036972
:104BC0008A60826851605968884208BF5A60002232
:104BD00002611A68013A1A601868704782B00023AF
:104BE00001930D4B1B68013308D04FF0500383F342
:104BF0001188BFF36F8FBFF34F8FFEE74FF0500365
:104C000083F31188BFF36F8FBFF34F8F019B002B8E
:104C1000FCD002B0704700BF0800002008480068C0
:104C2000006880F308884FF0000080F3148862B6B3
:104C300061B6BFF34F8FBFF36F8F00DF00BF00007F
:104C400008ED00E0DFF80C00016841F4700101603C
:104C50007047000088ED00E04FF0807340F8043C9E
:104C6000074B40F80C3C21F001016FF0020340F8C3
:104C7000081C40F8202C40F8243C4438704700BF02
:104C8000DD4B0008000000000000000000000000F4
:104C9000074B19680868B0E8F04F80F30988BFF344
:104CA0006F8F4FF0000080F311887047AFF30080E2
:104CB000183100204FF0500383F31188BFF36F8F3A
:104CC000BFF34F8F0A4A13680133012B13600DD1D4
:104CD000084B1B6813F0FF0F08D04FF0500383F30D
:104CE0001188BFF36F8FBFF34F8FFEE7704700BF90
:104CF0000800002004ED00E0084A136843B94FF0B3
:104D0000500383F31188BFF36F8FBFF34F8FFEE71C
:104D1000013B13600BB983F3118870470800002032
:104D2000EFF30980BFF36F8F154B1A681EF0100F59
:104D300008BF20ED108A20E9F04F10602DE909002E
:104D40004FF0500080F31188BFF34F8FBFF36F8F88
:104D500000F00AFF4FF0000080F3118809BC1968C9
:104D60000868B0E8F04F1EF0100F08BFB0EC108AD2
:104D700080F30988BFF36F8F704700BFAFF30080E7
:104D80001831002008B54FF0500383F31188BFF3AA
:104D90006F8FBFF34F8F00F0DDFD18B1034B4FF065
:104DA00080521A60002383F3118808BD04ED00E0EF
:104DB000084A0949002313600B60084B4FF47A71CD
:104DC0001B68B3FBF1F30649013B0B60072313603B
:104DD000704700BF10E000E018E000E01C00002079
:104DE00014E000E0394B3A4A13B51968914208D1F2
:104DF0004FF0500383F31188BFF36F8FBFF34F8FD2
:104E0000FEE71A68334B9A4208D14FF0500383F300
:104E10001188BFF36F8FBFF34F8FFEE72E4B1A78C9
:104E2000D2B20192FF221A701B782C4ADBB28DF8A5
:104E300003309DF8033003F050031370284B072212
:104E40001A6000219DF80300000602F1FF340DD422
:104E500001B11A601A68032A11D04FF0500383F38E
:104E60001188BFF36F8FBFF34F8FFEE79DF80320CC
:104E70005200D2B28DF8032001212246E2E712024D
:104E800002F4E0621A60019B134ADBB21370154B07
:104E90001A6842F470021A601A6842F070421A608E
:104EA000FFF786FF104B00241C60FFF7CBFE0F4A74
:104EB000136843F040431360FFF7B0FE00F054FE68
:104EC000FFF78CFE204602B010BD00BF00ED00E0F1
:104ED00071C20F4170C20F4100E400E010310020A8
:104EE0001431002020ED00E00800002034EF00E045
:104EF00010B50446FFF7DEFEA46BFFF7FDFEB4FA23
:104F000084F0400910BD70B51546026C866B0446EE
:104F100042B905689DB9806800F06EFFA560013652
:104F2000A66370BD6DB9406805F0BDFB6368226C77
:104F30001344A2686360934201D323686360002036
:104F4000EDE7C06805F0AFFB236CE26821685B42C7
:104F50001A448A42E2603EBFA2689B18E360022DB9
:104F6000EDD10EB1013EEAE73046D8E7034610B472
:104F70001A6C084662B1D9689C681144A142D96094
:104F800024BF1968D960D9685DF8044B05F08BBB64
:104F90005DF8044B704770B50446FFF78BFE94F83C
:104FA000455004F124066DB2002D14DCFF2384F873
:104FB0004530FFF7A1FEFFF77DFE94F8445004F161
:104FC00010066DB2002D12DCFF2384F84430BDE8DA
:104FD0007040FFF791BE636A002BE7D0304600F0C7
:104FE00017FE08B100F09EFE013D6DB2DCE72369BB
:104FF000002BE9D0304600F00BFE08B100F092FE25
:10500000013D6DB2DEE7000038B50D46044640B9FB
:105010004FF0500383F31188BFF36F8FBFF34F8FAF
:10502000FEE7FFF747FE206CE36B226862604343B4
:10503000D1181B1A1344A160E3600021FF23A16370
:1050400084F8443084F8453095B9236963B104F19C
:10505000100000F0DDFD38B10A4B4FF080521A60AD
:10506000BFF34F8FBFF36F8FFFF746FE012038BDB0
:1050700004F11000FFF770FD04F12400FFF76CFD50
:10508000F2E700BF04ED00E070B50D46064640B9FA
:105090004FF0500383F31188BFF36F8FBFF34F8F2F
:1050A000FEE748434830FFF791FC044650B1002327
:1050B00080F8463045B92060E6632564012120462A
:1050C000FFF7A2FF204670BD00F148030360F3E73D
:1050D0002DE9FF47894601921F46044640B94FF02B
:1050E000500383F31188BFF36F8FBFF34F8FFEE739
:1050F000002940F08880036C002B00F084804FF082
:10510000500383F31188BFF36F8FBFF34F8FFEE718
:10511000019E002E00F082804FF0500383F311882F
:10512000BFF36F8FBFF34F8FFEE7019D1DB9FFF7F0
:10513000E3FD002058E016B902A800F0ABFDFFF730
:10514000DBFD00F0FFFBFFF7B5FD94F84430FF2BCB
:1051500008BF84F8448094F84530FF2B08BF84F8DA
:105160004580FFF7C9FD01A902A800F09FFD0028B6
:1051700043D1FFF79FFDA66BE56BFFF7BDFDAE4288
:1051800035D1019904F1100000F028FD2046FFF709
:1051900002FF00F071FC38B94FF08053CAF80030BC
:1051A000BFF34F8FBFF36F8F0126FFF783FDA26B15
:1051B000E36B9A4201D3022FB7D13A4649462046C3
:1051C000FFF7A1FE636A1BB104F1240000F020FD8B
:1051D00038B1194B4FF080521A60BFF34F8FBFF3B5
:1051E0006F8FFFF789FD012004B0BDE8F0872046EE
:1051F000FFF7D1FE00F040FCD6E72046FFF7CBFEDC
:1052000000F03AFC95E7022F02D1E36B012B0AD1A3
:1052100000F08EFD00283FF47BAF00264FF0000821
:10522000DFF814A0C1E74FF0500383F31188BFF3F8
:105230006F8FBFF34F8FFEE704ED00E038B100231E
:1052400083600360C3601A461946FFF741BF704789
:1052500010B5024600210120FFF716FF0446FFF7B4
:10526000EDFF204610BD00002DE9F04385B08846D3
:105270000192044640B94FF0500383F31188BFF305
:105280006F8FBFF34F8FFEE7002940F08680036CDD
:10529000002B00F082804FF0500383F31188BFF39E
:1052A0006F8FBFF34F8FFEE7019E002E7AD04FF035
:1052B000500383F31188BFF36F8FBFF34F8FFEE767
:1052C000019D1DB9FFF718FD002052E016B902A894
:1052D00000F0E0FCFFF710FD00F034FBFFF7EAFC04
:1052E00094F84430FF2B08BF84F8447094F845309C
:1052F000FF2B08BF84F84570FFF7FEFC01A902A848
:1053000000F0D4FC00283DD12046FFF7F1FD98B312
:10531000019904F1240000F061FC2046FFF73BFEF8
:1053200000F0AAFB38B94FF08053C9F80030BFF342
:105330004F8FBFF36F8F0126FFF7BCFCA56B002DCD
:10534000BED041462046013DFFF710FEA56323690C
:1053500063B104F1100000F05BFC38B1134B4FF067
:1053600080521A60BFF34F8FBFF36F8FFFF7C4FCFB
:10537000012005B0BDE8F0832046FFF70CFE00F0E9
:105380007BFBD8E72046FFF706FE00F075FB2046C2
:10539000FFF7AEFD0028CED096E700F0C9FC00284C
:1053A00082D000260027DFF80490C5E704ED00E076
:1053B0002DE9FF410446019140B94FF0500383F3BA
:1053C0001188BFF36F8FBFF34F8FFEE7056C45B1B8
:1053D0004FF0500383F31188BFF36F8FBFF34F8FEC
:1053E000FEE700F0A5FC18B9019D002D40F0958066
:1053F000DFF838812E460027FFF75CFCA36BE3B192
:10540000013BA363236813B900F0A0FDA0602369EA
:1054100063B104F1100000F0FBFB38B1434B4FF0D7
:1054200080521A60BFF34F8FBFF36F8FFFF764FC9A
:105430000125284604B0BDE8F081019B63B945B160
:105440004FF0500383F31188BFF36F8FBFF34F8F7B
:10545000FEE7FFF751FCECE716B902A800F01AFCD2
:10546000FFF74AFC00F06EFAFFF724FC94F8443092
:10547000FF2B08BF84F8447094F84530FF2B08BF19
:1054800084F84570FFF738FC01A902A800F00EFC73
:1054900040BB2046FFF72CFDF0B123683BB9FFF776
:1054A00009FCA06800F054FC0546FFF725FC0199B3
:1054B00004F1240000F092FB2046FFF76CFD00F0A1
:1054C000DBFA38B94FF08053C8F80030BFF34F8F84
:1054D000BFF36F8F01268FE72046FFF75CFD00F0DA
:1054E000CBFAF7E72046FFF756FD00F0C5FA204655
:1054F000FFF7FEFC0028EDD0002D9AD0FFF7DAFB75
:10550000616A19B1236B1968C1F10701A06800F045
:10551000C3FC0025FFF7F0FB8BE74FF0500383F34C
:105520001188BFF36F8FBFF34F8FFEE704ED00E0EC
:105530002DE9F0410646FFF7BDFB2D4B2D4C1A68B7
:105540002D4F01321A602568002D45D126601B6859
:10555000012B1CD178191435FFF7FEFA8C2DF9D1E7
:10556000DFF8C080254D4046FFF7F6FA2846FFF7E2
:10557000F3FA2348FFF7F0FA2248FFF7EDFA224842
:10558000FFF7EAFA214BC3F80080214B1D60214A46
:1055900021491368086801331360F26A01239340BC
:1055A000034314200B6000FB0270311DFFF7E2FA89
:1055B000FFF7A2FB194B1B6863B12368DA6AF36A31
:1055C0009A4207D2164B4FF080521A60BFF34F8FAA
:1055D000BFF36F8FBDE8F081104B1B68002BD6D155
:1055E0002368DA6AF36A9A4298BF2660CFE700BF61
:1055F000B03100201831002024310020DC3100209F
:10560000F831002024320020103200201C3100200C
:1056100020310020C0310020C43100200C32002095
:1056200004ED00E0C8310020064A13681968064BF3
:1056300019B94FF0FF321A6070471268D268D26809
:105640005268F8E71C310020F03100202DE9F047C6
:105650000A9C099E4FEA82094A4607460D46206B7E
:10566000A521984605F02AF8236BA9F1040999446D
:1056700029F0070995B36B1E04F134021F355978E0
:1056800002F8011B13F8011F09B1AB42F7D1002347
:1056900084F85330089D062D28BF06254FF0000AD8
:1056A000E5626565201DC4F858A0FFF760FAC5F1F2
:1056B000070504F11800FFF75AFAC4F85CA024614A
:1056C000A561646284F860A0424639464846FFF707
:1056D000C3FA206006B13460BDE8F08784F8345026
:1056E000D8E710B590F8613004463BB9006BFFF77E
:1056F000FBF92046BDE81040FFF7F6B9012BF9D0C1
:10570000022B08D04FF0500383F31188BFF36F8F43
:10571000BFF34F8FFEE710BD80B5DFF85C80124FFE
:10572000124C134D236863B9124B1B68012BF8D937
:105730004FF08053C8F80030BFF34F8FBFF36F8F27
:10574000EEE7FFF7B7FAFB68DE68301DFFF735FAC2
:105750002B68013B2B602368013B2360FFF7CCFAE9
:105760003046FFF7BEFFDDE724320020B4310020D1
:10577000B03100202431002004ED00E0F8B51B4BCF
:105780001B4E1D680446306804300F46FFF715FABB
:10579000334640B93168174EC96A326801208840E3
:1057A00022EA00023260621C07D137B11968124840
:1057B0000431BDE8F840FFF7DDB92C441A68A54272
:1057C000546007D90D4A10681968BDE8F8400431E3
:1057D000FFF7DCB90A4A106819680431FFF7D6F9F7
:1057E000084B1A68944238BF1C60F8BD383200205C
:1057F00018310020C4310020103200202031002058
:105800001C310020F03100204FF0500383F3118849
:10581000BFF36F8FBFF34F8FFEE770B586B00B9D60
:105820000C9C0DB9FFF7F0FF44B94FF0500383F320
:105830001188BFF36F8FBFF34F8FFEE76426059685
:10584000059E642E08D04FF0500383F31188BFF3F8
:105850006F8FBFF34F8FFEE72563022584F86150F9
:1058600004AD01950A9D02940095059EFFF7EEFE9A
:105870002046FFF75DFE049806B070BD2DE9F043A9
:10588000074685B09000884616469946FFF79EF871
:105890000546E8B16420FFF799F80446A8B1002353
:1058A00080F861300D9B056301930C9B029000937F
:1058B00032464B4641463846FFF7C8FE2046FFF7C2
:1058C00037FE012005B0BDE8F0832846FFF70CF94C
:1058D0004FF0FF30F6E7000010B588B0002407AAAB
:1058E00006A905A80594069400F052FD059B0293B5
:1058F000069B019300942346079A0D490D48FFF734
:105900008CFF90B14FF0500383F31188BFF36F8F7A
:10591000BFF34F8F084B4FF0FF321A60074B012245
:105920001A60074B1C60FFF75DFA08B010BD00BF9E
:105930004BEF000819570008F03100200C3200200E
:1059400038320020024A136801331360704700BFE9
:10595000BC3100202DE9F84F3C4B1B68002B6DD16A
:105960003B4B1C6801341C60BCB93A4B1A68126886
:1059700042B14FF0500383F31188BFF36F8FBFF331
:105980004F8FFEE7344A1968106818601160334A77
:10599000136801331360FFF747FE314D314F2B6819
:1059A0009C424FF0000B0AD3DFF8A8A0DFF8C490A8
:1059B000DAF800201268A2B94FF0FF322A603A6884
:1059C000294BD16A14224A439A58022A28BF4FF021
:1059D000010B264A1268002A0CBF58460120BDE878
:1059E000F88FDAF80020D268D66871688C4201D24C
:1059F0002960E4E706F104084046FFF7DEF8B16AE3
:105A000019B106F11800FFF7D8F8F06AD9F800309C
:105A1000012202FA00F11943134BC9F800104FF0AC
:105A2000140E41460EFB0030FFF7A4F83868F16A07
:105A3000C26A914228BF4FF0010BB9E70C4A1368C4
:105A4000013313604FF0000BC3E700BFBC310020EF
:105A5000383200201C31002020310020F431002099
:105A6000F031002018310020243100203C32002089
:105A7000B8310020C43100202DE9F843314C2368AF
:105A800043B94FF0500383F31188BFF36F8FBFF317
:105A90004F8FFEE7FFF70EF92368013B2360246870
:105AA0002CB10024FFF728F92046BDE8F883264BE7
:105AB0001B68002BF5D0DFF8A890244FDFF8A480F6
:105AC000D9F80030E3B90CB1FFF7AEFD204D2C68DA
:105AD00044B1204E0127FFF73DFF00B13760013C84
